:020000040800F2
:10000000000002200D09000801090008793C0008E1
:1000100001090008010900080109000800000000AA
:1000200000000000000000000000000001090008BE
:10003000010900080000000001090008FD3B00085C
:100040000109000801090008010900080109000868
:100050000109000801090008010900080109000858
:10006000010900080109000801090008DD3700083E
:10007000E937000801090008F537000801380008D1
:100080004DF20008E12700080109000801090008F5
:100090000109000801090008010900080109000818
:1000A0000109000801090008010900080109000808
:1000B000C9E30008D5E30008E1E3000815280008BB
:1000C00001090008212800080109000869DC00086E
:1000D00075DC00085DF000088DF00008C5F0000830
:1000E00001090008010900080000000001090008DA
:1000F00001090008010900080109000801090008B8
:100100000109000801090008EDE3000881DC00088E
:10011000FDF0000835F10008010900080109000898
:100120000109000801090008A5DC0008D9DC000865
:1001300081F200080109000801090008010900080E
:1001400000000000000000000000000000000000AF
:100150000109000801090008010900086DF1000803
:100160002D280008010900080D3C0008313C00085A
:1001700001090008553C00080109000801090008B0
:100180000109000801090008A5F10008DDF10008D7
:100190008DDC000899DC000801090008010900084D
:1001A0000109000801090008010900080109000807
:1001B0001D340008010900080109000801090008B0
:1001C00001090008010900080109000801090008E7
:1001D00001090008010900080109000801090008D7
:1001E00001090008010900080109000801090008C7
:1001F00001090008010900080109000801090008B7
:1002000001090008010900080109000801090008A6
:100210000109000801090008010900080109000896
:100220000109000801090008010900080000000098
:100230000109000801090008000000000109000888
:100240000109000801090008010900080109000866
:100250000109000801090008010900080109000856
:100260000109000801090008010900080109000846
:10027000010900080109000815F20008000000004B
:100280000109000801090008010900080000000038
:08029000000000000109000854
:100298000348044B834202D0034B03B1184770470D
:1002A8007C0300247C030024000000000548064B62
:1002B8001B1AD90F01EBA301491002D0034B03B15C
:1002C800184770477C0300247C03002400000000CA
:1002D80010B5064C237843B9FFF7DAFF044B13B186
:1002E8000448AFF300800123237010BD800300246D
:1002F80000000000D817010808B5044B1BB10449D9
:100308000448AFF30080BDE80840CFE700000000D4
:1003180084030024D817010870B50F4B0F4DAB426A
:10032800A3EB050607D0B610002455F8043B0134AA
:100338009847A642F9D811F03FFA094D094B5E1BC0
:10034800AB424FEAA60606D0002455F8043B013418
:100358009847A642F9D870BDE0170108E0170108D0
:10036800E017010808180108830730B547D0541E64
:10037800002A3ED0CAB2034601E0013C39D303F853
:10038800012B9D07F9D1032C2CD9CDB205EB0525FE
:100398000F2C05EB054535D9A4F1100222F00F0CFE
:1003A80003F1100EE6444FEA121C1A46C2E9005542
:1003B800C2E9025510327245F8D10CF1010214F06D
:1003C8000C0F03EB021204F00F0C13D0ACF1040372
:1003D80023F003030433134442F8045B9342FBD134
:1003E8000CF003042CB1C9B21C4403F8011BA3424E
:1003F800FBD130BD64461346002CF4D1F9E703461F
:100408001446C0E71A46A446E0E700BF10B5054CFD
:1004180034B113460A460146022000F09FF810BD89
:10042800204610BD65050008844641EA000313F024
:1004380003036DD1403A41D351F8043B40F8043BE3
:1004480051F8043B40F8043B51F8043B40F8043BA6
:1004580051F8043B40F8043B51F8043B40F8043B96
:1004680051F8043B40F8043B51F8043B40F8043B86
:1004780051F8043B40F8043B51F8043B40F8043B76
:1004880051F8043B40F8043B51F8043B40F8043B66
:1004980051F8043B40F8043B51F8043B40F8043B56
:1004A80051F8043B40F8043B51F8043B40F8043B46
:1004B80051F8043B40F8043B403ABDD2303211D3E6
:1004C80051F8043B40F8043B51F8043B40F8043B26
:1004D80051F8043B40F8043B51F8043B40F8043B16
:1004E800103AEDD20C3205D351F8043B40F8043BE6
:1004F800043AF9D2043208D0D2071CBF11F8013BE4
:1005080000F8013B01D30B8803806046704700BFA9
:10051800082A13D38B078DD010F003038AD0C3F1B8
:100528000403D21ADB071CBF11F8013B00F8013B9A
:1005380080D331F8023B20F8023B7BE7043AD9D359
:10054800013A11F8013B00F8013BF9D20B7803702E
:100558004B7843708B78837060467047F0B5264CB3
:10056800256883B006460F4605B36C681F2C3FDC30
:10057800A6B1D5F8880048B3D0F8001140F8242077
:100588004FF0010C0CFA04FC00EB84024CEA010168
:10059800022EC0F80011C2F8803010D0A31C01341C
:1005A8006C6045F82370002003B0F0BD134814496F
:1005B800216010B10068C1F88800114DD5E7D0F866
:1005C800043143EA0C03C0F80431E7E70D49CDE9EB
:1005D800002369B14FF48470AFF3008040B100216B
:1005E800C0E94011DDE900236C68C5F88800C5E75B
:1005F8004FF0FF30D8E700BF300500240C17010882
:10060800A40400240000000053B94AB9002908BF17
:1006180000281CBF4FF0FF314FF0FF3000F06AB9DF
:10062800ADF1080C6DE904CE00F006F8DDF804E041
:10063800DDE9022304B070472DE9F047089D0E4616
:1006480004460F46002B4AD194468C45B2FA82F2F2
:1006580060D942B1C2F12003974020FA03F30CFAA3
:1006680002FC1F4394404FEA1C4E1FFA8CF6B7FB5E
:10067800FEF1230C0EFB117743EA074301FB06F05A
:1006880098420AD91CEB030301F1FF3780F015816A
:10069800984240F21281023963441B1AA4B2B3FB98
:1006A800FEF00EFB103344EA034400FB06F6A642B4
:1006B8000AD91CEB040400F1FF3380F00081A64244
:1006C80040F2FD806444023840EA0140A41B002146
:1006D8001DB1D4400023C5E90043BDE8F0878B4233
:1006E80005D90DB1C5E9000100210846F5E7B3FABF
:1006F80083F1002946D1B34202D3824200F2F58049
:10070800841A66EB030201201746002DE5D0C5E9DF
:100718000047E2E7002A40F09380A1EB0C034FEA80
:100728001C471FFA8CFE0121B3FBF7F607FB1630B6
:10073800230C43EA00430EFB06F0984208D91CEB51
:10074800030306F1FF3802D2984200F2D0804646F1
:100758001B1AA4B2B3FBF7F007FB103344EA0344B7
:100768000EFB00FEA64508D91CEB040400F1FF337C
:1007780002D2A64500F2B6801846A4EB0E0440EA61
:100788000640A5E7C1F120078B4022FA07FC4CEA96
:10079800030C06FA01FE20FA07F426FA07F344EAE6
:1007A8000E0400FA01F84FEA1C404FEA1449B3FB63
:1007B800F0FE1FFA8CF600FB1E3349EA03430EFBDA
:1007C80006F9994502FA01F20BD91CEB03030EF165
:1007D800FF3A80F08580994540F28280AEF1020EA2
:1007E8006344A3EB0909A4B2B9FBF0F300FB139926
:1007F80044EA094403FB06F6A64208D91CEB0404A4
:1008080003F1FF3068D2A64266D9023B644443EA4A
:100818000E40A41BA0FB02E6B4427346B14652D375
:100828004FD05DB1B8EB030264EB090404FA07F793
:1008380022FA01F31F43CC40C5E9007400214CE7BC
:10084800C2F1200120FA01F30CFA02FC26FA01F1A8
:10085800964033434FEA1C471FFA8CFEB1FBF7F072
:1008680007FB1016190C41EA064100FB0EF68E42F2
:1008780004FA02F408D91CEB010100F1FF382DD26B
:100888008E422BD902386144891B9BB2B1FBF7F623
:1008980007FB161143EA014306FB0EF1994208D9FA
:1008A8001CEB030306F1FF3814D2994212D9023E19
:1008B80063445B1A46EA004136E73946EDE61846D6
:1008C80002E7F045ADD2BEEB020366EB0C06013839
:1008D800B146A6E74646ECE7034698E74046D3E725
:1008E800D6467EE76444023847E708460DE7023EED
:1008F80063442DE7704700BF684620F007018D4626
:10090800FEE700BF0B480C4A904208B503D0121A04
:100918000A49FFF789FD0A480A4A904203D0121A89
:100928000021FFF721FD03F003FCFFF7F5FC00F0C1
:1009380029F8FEE7000000247C0300240C180108B5
:100948008003002488320024704700BFCAB10368BE
:10095800406803EB820210B40C684968B6EE007A6E
:10096800F3EC017A934267EE877AE4EC017AF0ECD3
:10097800017A67EE877AE1EC017AEFD15DF8044BF2
:100988007047704708B50A4800F03EF8002108484B
:1009980000F032F93021064800F058F803210448E5
:1009A80000F038F80349024800F030F8FEE700BFCD
:1009B800340500245509000810484FF60B71002330
:1009C8000F4A10B46FF0F41401858187A0F858100D
:1009D8000C49436103624363836443660367C0E968
:1009E8000034C0E902445DF8044BC0E90B33C0E9A8
:1009F8001033C0E9173310F05DBE00BF3405002482
:100A08000000002451090008704700BF143001F0AD
:100A180035BB00BF38B500F1140504462DED028B37
:100A2800284601F0D9FA284601F0D2FA2846B0EE55
:100A3800408A01F0BBFAD0ED007AF8EE677A88EECA
:100A4800277ABDEC028B84ED1B7A38BD38B500F1EE
:100A5800140504462DED028B284601F0ABFA284612
:100A680001F0B6FA2846B0EE408A01F09FFAD0EDC0
:100A7800007AF8EE677A88EE277ABDEC028B84ED6F
:100A88001B7A38BD10B540F203318EB000244FF602
:100A98000B7340F20342ADF80810029909A8ADF8AB
:100AA8001030ADF824300123ADF80C202246009414
:100AB80007940C94CDE90544CDE90A4401F020FCE3
:100AC80004A8012322460399009401F019FC09A8FF
:100AD80001F024FD10B901200EB010BD04A801F0EA
:100AE8001DFD80F00100C0B240000EB010BD00BF77
:100AF8002DE9F04103239AB00125002414934FF601
:100B08000B78394B064610941193A3F19F63159502
:100B1800A3F57D43ADF84C80CDE916451293FFF758
:100B2800B1FFA84207463DD002282BD12F4B2A46B9
:100B38000094CDF84A3040F60133ADF82C80ADF87A
:100B48001830234606990E94CDE918450BAD284672
:100B5800CDE90C4401F0D4FB2146284601F0EAFC1B
:100B680010A906F1700002F0C3FE214B0FCB85E8F7
:100B78000F00326F294606F1140001F0DFF91AB0B0
:100B8800BDE8F08140F60132184B06F1580019957E
:100B9800ADF82C200BAD0B991894CDF84A3000F025
:100BA800A3F8DDE71023114A06A906908DF828302E
:100BB8000BAD104BCDF84A2009940294CDE90730CB
:100BC800CDE9180402A801F033FE0823029A03A90C
:100BD8002846ADF80C708DF80E40049705930B94D9
:100BE80000F0C2F8BCE700BF0402040404060403D2
:100BF800C81601080704010B2DE9F041384B0446DB
:100C0800384D40F20112012704F104082DED028B42
:100C1800456082B0A36003F58133ADF8042040F24B
:100C2800027203F5807300202285E36040F60663B4
:100C38002782A387E762276400918DF8060003F0F6
:100C48002DFA054603F086F86946064610BB0DB333
:100C580004F150008DF8067003F0A2F9072D30D189
:100C680004F114052046FFF743FF284601F0B0F9C8
:100C78002846B0EE408A01F099F9D0ED007AF8EEF6
:100C8800677A88EE277A84ED1B7A02B0BDEC028B76
:100C9800BDE8F08104F1500003F082F9072D15D169
:100CA800002EDDD004F12801084601F019FA04F1FC
:100CB8003C01084601F014FA04F1120000F074F93E
:100CC800CEE74146204602F05FF9C9E74146204693
:100CD80002F05AF9002EE5D1002DE3D0C0E700BF9D
:100CE800050705060508050930B585B00025044641
:100CF8000122ADF80C102B460399009501F000FB7A
:100D08000121204601F016FC012003F021F82946B4
:100D1800204601F00FFC012003F01AF801212046BB
:100D280005B0BDE8304001F005BC00BF10B5C2F306
:100D3800002384B00C46017C8DF80D2043EA440260
:100D4800FA2402238DF80C2003AA009401F004FE73
:100D580018B10124204604B010BD04460A2002F050
:100D6800F7FF204604B010BD034670B543F8042BC6
:100D7800044684B0FA2507C983E80700A1791E2331
:100D8800009503AA1A31ADF80C3020460223C9B2E7
:100D9800217401F0E1FD10B1012004B070BD0A20FA
:100DA80002F0D6FF4FF4B85200950223ADF80C209C
:100DB800204603AA217C01F0CFFD0028ECD10A20AF
:100DC80002F0C6FF41F2027200950223ADF80C2032
:100DD800204603AA217C01F0BFFD0028DCD10A20AF
:100DE80002F0B6FF042200950223ADF80C2020463D
:100DF80003AA217C01F0B0FD0028CDD10A2002F021
:100E0800A7FF062200950223ADF80C20204603AA6E
:100E1800217C01F0A1FD0028BED10A2002F098FF34
:100E280041F2082200950223ADF80C20204603AABF
:100E3800217C01F091FD0028AED10A200A2602F09B
:100E480087FF0095022303AA217C2046ADF80C6099
:100E580001F082FD00289FD1304602F079FF237906
:100E68000C220095002B217C8DF80C20204614BF05
:100E7800622342236A448DF80D30022301F06CFD91
:100E8800002889D1304602F063FFA3680095204608
:100E9800E268217C13432279DBB282F0010243EA43
:100EA80082136279524202F0200213430E228DF817
:100EB8000D3002238DF80C2003AA01F04DFD002807
:100EC8007FF46AAF304602F043FF102200950223F8
:100ED800ADF80C20204603AA217C01F03DFD002836
:100EE8007FF45AAF304602F033FF122100950223F7
:100EF800ADF80C1003AA217C204601F02DFD002836
:100F08007FF44AAF304602F023FF01220921204630
:100F1800FFF70CFF003818BF01203EE7F0B5214D60
:100F280087B000240126102702A94FF480522846D2
:100F38000194CDE90267CDE904640AF091FD6420CB
:100F480003F088FA022302A94FF48052284602933C
:100F58000594CDE903760AF083FD042302A94FF432
:100F6800805228460397CDE90434032302930AF0FC
:100F780077FD40F23223042202A928460193102368
:100F88000496CDE90223019B4FF4805205930AF0A1
:100F980067FD40F6060128460AF082FD204607B0A4
:100FA800F0BD00BFB405002470B51F4B88B00822FF
:100FB8001E4E00214FF400641A614FF0020C039298
:100FC8000A225E6020260692402205469960032088
:100FD800196210215C620124C3E905624FF4C072F2
:100FE800DC60DA6107229FED0E7BCDE900C20422A6
:100FF800CDE904016946181D029283ED0A7B0AF0C7
:1010080005FD38B92846FFF789FF003818BF0120C9
:1010180008B070BD204608B070BD00BFAFF30080B7
:101028000010000000000000B005002440410052FC
:101038005E4A0023F0B514688FB00A93002C40F084
:10104800B2805B4B012103260C2511600227D3F8DF
:10105800D420584842F48052C3F8D420D3F8D4207E
:1010680002F480520092009AD3F8E02042F0100275
:10107800C3F8E020D3F8E02002F010020192019AB0
:10108800D3F8E02042F04002C3F8E020D3F8E02093
:1010980002F040020292029AD3F8E02042F00802DD
:1010A800C3F8E020D3F8E02002F008020392039A84
:1010B800D3F8E02042F48072C3F8E020D3F8E020AF
:1010C80002F480720492049AD3F8E02042F080027D
:1010D800C3F8E020D3F8E02002F080020592059AD8
:1010E800D3F8E02042F02002C3F8E020D3F8E02053
:1010F80002F020020692069AD3F8E02042F0040299
:10110800C3F8E0204FF68372D3F8E0300B9603F073
:1011180004030C9507930223079908A9CDE908232E
:1011280004F0CCFD48F2371308A9234808930C951E
:101138000997CDE90A4604F0C1FD4CF2037308A9EA
:101148001E480893CDE90974CDE90B6504F0B6FD96
:1011580040F2FF6308A91A480893CDE90974CDE95C
:101168000B6504F0ABFD4FF60C7308A915480893FE
:10117800CDE90974CDE90B6504F0A0FD4FF63F03F6
:1011880008A911480893CDE90974CDE90B6504F065
:1011980095FD202308A90B4809970C950893CDE9DC
:1011A8000A4604F08BFD0FB0F0BD00BFA80500246F
:1011B800004402580010025800180258000C025847
:1011C80000200258001C0258001402582DE9F04F64
:1011D8008BB0DFF818830646BE4800AF1446796224
:1011E80002F088FCD8F818204369002A00F09B8098
:1011F800D8F81C20D8F804A0002A15BF4FF0100911
:101208004FF008094FF0040B4FF0020BBAF1000F32
:1012180000F09780A200E946012B02F1070222F0B4
:101228000702ADEB020D6846ADEB020DEB4600F090
:10123800D581022B00F05282002B6CD1002C6AD091
:101248001A46D8ED0C6A9FEDA47A0146331D36F98B
:101258002250083107EE905A33F922500232F8EE44
:10126800E77A944267EE877A67EEA67A41ED027ACA
:1012780007EE905AF8EEE77A67EE877A67EEA67A75
:1012880041ED017AE3D859462246D0477D6A0021CC
:10129800D8ED0D6A9FED977A2B1D90489FED906AC7
:1012A800DFED905A2CE0F4EEC67AF1EE10FA80F2F7
:1012B800108267EEA57AFDEEE77A17EE902A12B251
:1012C800DBED017A45F8212066EEA77AF4EEC77ABD
:1012D800F1EE10FA40F2F481F4EEC67AF1EE10FA6B
:1012E80080F2F48167EEA57AFDEEE77A17EE902A90
:1012F80012B243F8212002310BF1080B8C420DD9B0
:10130800DBED007A66EEA77AF4EEC77AF1EE10FA12
:10131800C9D80246D4E722465946D047CD462C378D
:10132800BD46BDE8F08FD8F81C20002AF7D0D8F8C1
:1013380004A04FF008094FF0020BBAF1000F7FF438
:1013480069AF3B62D8F80030FB61002BE7D06648F4
:10135800C7F818D002F038FCBBF1020F3B6A3861BD
:1013680000F03C826A4660084946A2EBC4027861F4
:101378009546C4F35D026846A0EBC405AD46EE464B
:10138800ADEB090D00EB8209EA46ADEB010D09EB67
:1013980082010EEB820C6D46CAF8081001EB82013F
:1013A8003D62CAF80C100CEB820101EB8202CAE91B
:1013B8000009C5E900ECC5E90212012B00F03883E9
:1013C800022B00F02E82002B40F0F781002C00F059
:1013D8003F84BBF1020FD8F8242000F06E843969ED
:1013E800DAF80C5002EB810E1A46DAF808100EF102
:1013F8000403C7F808A0C7F804B08A46FB60331D89
:10140800DFED355AD7F80CB036F92210D8ED0C7A42
:1014180006EE101A33F9221006EE901A3EF9221041
:10142800B8EEC66A07EE101AF8EEE66A3BF9221023
:10143800B8EEC77A26EE256A66EEA56A27EE257A03
:1014480026EE276A66EEA76A27EE277A07EE901A35
:1014580051080232F8EEE77A00EB810C94428CEDE9
:10146800006A09EB810C67EEA57ACCED006A0AEBFD
:10147800810C05EB81018CED007A98ED0C7A67EE12
:10148800877AC1ED007ABFD8D7E901BA7A695046A0
:10149800D7E9073198473A6ABBF1020F98ED0D7A00
:1014A800D8F82C30D2E900CE00F09E843A690021A9
:1014B800786A03EB82093B6ADFED0E6A9FED086AE2
:1014C80009F10408DFED075A044ED3E902AB031D06
:1014D80075E000BF00060024000000380280FFFF0E
:1014E80004FF7F3F00FEFF4604060024E8050024B1
:1014F8000000003404FF7FBFF4EEC67AF1EE10FA64
:1015080080F28C8167EEA57AFDEEE77A17EE905AA5
:101518002DB240F821500EEB0205D5ED007A67EEAA
:10152800277AF4EEE67AF1EE10FA40F25381F4EEFF
:10153800C67AF1EE10FA80F26E8167EEA57AFDEEBA
:10154800E77A17EE905A2DB243F821500AEB0205BC
:10155800D5ED007A67EE277AF4EEE67AF1EE10FA26
:1015680040F23681F4EEC67AF1EE10FA80F26A8320
:1015780067EEA57AFDEEE77A17EE905A2DB25A4437
:1015880049F82150D2ED007A67EE277AF4EEE67A30
:10159800F1EE10FA40F22081F4EEC67AF1EE10FA7C
:1015A80080F2538367EEA57AFDEEE77A17EE902A6C
:1015B80012B248F8212002318C4240F203814A08D5
:1015C8000CEB82059200D5ED007A67EE277AF4EEEF
:1015D800E67AF1EE10FA8FD835469AE7002C3FF4F8
:1015E8009AAED8ED0C6A84461FED3F7A0021331D70
:1015F80056F821200CF1080C82F40002A2F5000232
:1016080007EE902A53F821200231F8EEE77A82F4A7
:1016180000028C42A2F5000267EE877A67EEA67A8E
:101628004CED027A07EE902AF8EEE77A67EE877AB1
:1016380067EEA67A4CED017ADAD859462246D047A9
:101648007D6A0021D8ED0D6A1FED567A2B1DB6482C
:101658009FEDBC6AB54E28E0F4EEC67AF1EE10FABA
:1016680032DAF0EE675AFEEEE45A15EE902ADBED18
:10167800017A45F8212066EEA77AF4EEC77AF1EEF2
:1016880010FA1FD9F4EEC67AF1EE10FA24DAF0EE69
:10169800675AFEEEE45A15EE902A43F821200231EB
:1016A8000BF1080B8C427FF639AEDBED007A66EE63
:1016B800A77AF4EEC77AF1EE10FACDD80246D6E74B
:1016C800024616E60246E8E73246D0E747F6FE72DB
:1016D8000FE647F6FE72F3E53246DEE7002C3FF4EC
:1016E8001AAED8ED0C6A01469FED917A0022331D9F
:1016F80056F82250083107EE905A53F82250023219
:10170800F8EEE77A944267EE877A67EEA67A41EDBB
:10171800027A07EE905AF8EEE77A67EE877A67EE74
:10172800A67A41ED017AE3D859462246D0477D6A28
:101738000021D8ED0D6A9FED827A2B1D7D489FED23
:10174800816A7D4E28E0F4EEC67AF1EE10FA32DABC
:10175800F0EE675AFEEEE05A15EE902ADBED017ABC
:1017680045F8212066EEA77AF4EEC77AF1EE10FA72
:101778001DD9F4EEC67AF1EE10FA1ADAF0EE675ACD
:10178800FEEEE05A15EE902A43F8212002310BF1C3
:10179800080B8C427FF6C2ADDBED007A66EEA77AC5
:1017A800F4EEC77AF1EE10FACDD80246D6E7024633
:1017B800EAE73246E8E73246D0E77A695046396ABE
:1017C800FB699847D7F818D02C37BD46BDE8F08F8D
:1017D8003546D4E63546B7E63246EAE6A20049463B
:1017E800650807327D6122F00702ADEB020D6846FD
:1017F800ADEB020D6A46ADEB090D00EB8509EA4633
:10180800ADEB010D69460A6002EB850239624A6058
:10181800CAE90009D1E547F6FE7595E647F6FE7573
:1018280077E6002C00F01482BBF1020FD8F82430C0
:1018380000F06B823A69C7F808A003EB820EC7F87C
:1018480004B0DFED3B5A00220EF10405DAE9021379
:10185800FB608A46331DD7F80CB056F82210D8ED35
:101868000C7A07EE101A53F82210B8EEC76A07EE82
:10187800101A5EF82210F8EEC76A07EE101A26EE64
:10188800256A55F82210B8EEC77A66EEA56A26EEE4
:10189800276A27EE257A66EEA76A27EE277A07EEEB
:1018A800901A51080232F8EEE77A00EB810C944264
:1018B8008CED006A09EB810C67EEA57ACCED006A25
:1018C8000AEB810C0BEB81018CED007A98ED0C7A18
:1018D80067EE877AC1ED007ABFD8D7E901BA7A698D
:1018E8005046D7E9073198473A6ABBF1020FD8ED5D
:1018F8000D7AD8F82C30D2E900CE00F0D3823A69BC
:1019080000217D6A03EB82093B6ADFED0D6A9FEDDA
:101918000D6A09F10408074EDFF81CB0D3E902A3E9
:101928003B622B1D6BE000BF7E0080FF82FF7F00C3
:1019380000000030007E00800082FF7F000000343D
:1019480004FF7FBF04FF7F3FB4EEC67AF1EE10FAC2
:101958006ADAF0EE475AFEEEE05A15EE900A45F8BC
:1019680021000EEB020090ED007A27EE877AB4EEA4
:10197800E67AF1EE10FA53D9B4EEC67AF1EE10FA1F
:1019880054DAF0EE475AFEEEE05A15EE900A43F8A4
:1019980021000AEB020090ED007A27EE877AB4EE78
:1019A800E67AF1EE10FA39D9B4EEC67AF1EE10FA09
:1019B80080F24681F0EE475AFEEEE05A15EE900AA4
:1019C80049F82100386A024492ED007A27EE877AB6
:1019D800B4EEE67AF1EE10FA24D9B4EEC67AF1EE56
:1019E80010FA80F22B81F0EE475AFEEEE05A15EE1F
:1019F800902A48F8212002318C427FF6E3AE4A084B
:101A08000CEB8200920090ED007A27EE877AB4EE14
:101A1800E67AF1EE10FA97D83046A0E73046CFE7DD
:101A28003046B4E73246E4E7584698E75846AEE70A
:101A3800002C00F00D81BBF1020FD8F8243000F023
:101A48000D813A690021C7F80CA003EB820C5FED09
:101A5800455AC7F808B00CF1040EDAE902231D460E
:101A68009246331D56F82120D8ED0C7A82F40002F4
:101A7800A2F5000207EE102A53F8212082F4000292
:101A8800B8EEC76AA2F5000226EE256A07EE102A0C
:101A98005CF8212082F40002F8EEC76A26EE276A75
:101AA800A2F5000266EEA56A07EE102A5EF821206C
:101AB800B8EEC77A82F4000266EEA76AA2F50002C1
:101AC80027EE257A27EE277A07EE902A4A08023170
:101AD800F8EEE77A00EB820B8C428BED006A09EB9B
:101AE800820B67EEA57ACBED006A0AEB820B05EB59
:101AF80082028BED007A98ED0C7A67EE877AC2ED58
:101B0800007AAFD8D7E902BA7A695046D7E90731DF
:101B180098473A6ABBF1020FD8ED0D7AD8F82C3005
:101B2800D2E900CE00F018813A6900217D6A03EB02
:101B380082093B6A5FED7E6A1FED7E6A09F104083F
:101B4800CF4EDFF84CB3D3E902A33B622B1D58E01C
:101B5800B4EEC67AF1EE10FA6ADAF0EE475AFEEE03
:101B6800E45A15EE900A45F821000EEB020090EDBC
:101B7800007A27EE877AB4EEE67AF1EE10FA51D9B8
:101B8800B4EEC67AF1EE10FA50DAF0EE475AFEEEED
:101B9800E45A15EE900A43F821000AEB020090ED92
:101BA800007A27EE877AB4EEE67AF1EE10FA37D9A2
:101BB800B4EEC67AF1EE10FA3CDAF0EE475AFEEED1
:101BC800E45A15EE900A49F82100386A024492ED69
:101BD800007A27EE877AB4EEE67AF1EE10FA23D986
:101BE800B4EEC67AF1EE10FA26DAF0EE475AFEEEB7
:101BF800E45A15EE902A48F8212002318C427FF6EB
:101C0800E1AD4A080CEB8200920090ED007A27EED5
:101C1800877AB4EEE67AF1EE10FA99D83046A2E760
:101C28003046D0E73046B6E73246E4E75846B2E7F2
:101C3800584698E75846C6E75A46DCE75A46D8E673
:101C48005846BDE647F6FE7599E447F6FE72B0E4DD
:101C58002246396A5046FB699847B3E598ED0C6A05
:101C68000021DFED886A331D56F8212082F4000236
:101C7800A2F5000207EE902A53F8212082F4000210
:101C8800B8EEE77AA2F5000227EE267A07EE902A48
:101C98004A080231F8EEE77A00EB820527EE067A69
:101CA80009EB82028C4267EEA67A85ED007A67EE30
:101CB800867AC2ED007AD7D826E71A4698ED0C6ADC
:101CC800DFED716A331D36F9221007EE101A33F969
:101CD800221007EE901AB8EEC77A51080232F8EED1
:101CE800E77A27EE267A00EB8105944209EB810119
:101CF80067EEA67A27EE067A67EE867A85ED007A91
:101D0800C1ED007ADFD8FFF7C1BB98ED0C6A00225D
:101D1800DFED5E6A331D56F8221007EE901A53F86D
:101D28002210B8EEE77A07EE901A51080232F8EE60
:101D3800E77A27EE267A00EB8105944209EB8101C8
:101D480067EEA67A27EE067A67EE867A85ED007A40
:101D5800C1ED007ADFD8C2E57A6A0021DFED4F6A6B
:101D68009FED4F6A131D46489046494E27E0B4EE52
:101D7800C67AF1EE10FA35DAF0EE475AFEEEE45A7A
:101D880015EE905A724448F8215092ED007A27EEE9
:101D9800877AB4EEE67AF1EE10FA1FD9B4EEC67A75
:101DA800F1EE10FA1CDAF0EE475AFEEEE45A15EEA0
:101DB800902A43F8212002318C427FF603AD4A086D
:101DC8000CEB8205920095ED007A27EE877AB4EE47
:101DD800E67AF1EE10FACAD80546D3E70246E8E7F4
:101DE8003246E6E73546CDE77D6A0020DFED2B6A0F
:101DF8009FED2B6A2B1DDFED275A274E29E0F4EEC5
:101E0800C67AF1EE10FA35DA67EEA57AFDEEE77AD2
:101E180017EE901A09B2724445F82010D2ED007AF4
:101E280067EE277AF4EEE67AF1EE10FA20D9F4EEAE
:101E3800C67AF1EE10FA20DA67EEA57AFDEEE77AB7
:101E480017EE902A12B243F82020023084427FF61F
:101E5800B9AC42080CEB82019200D1ED007A67EE32
:101E6800277AF4EEE67AF1EE10FAC8D83146D2E7CE
:101E78003246E8E747F6FE71CDE747F6FE72E2E73D
:101E88007E0080FF000000340000003800000030B1
:101E980082FF7F0000FEFF460280FFFF04FF7FBF36
:101EA80004FF7F3F7A6A00215FED046A1FED046A30
:101EB800131D20489046204E27E0B4EEC67AF1EE76
:101EC80010FA35DAF0EE475AFEEEE05A15EE905A5F
:101ED800724448F8215092ED007A27EE877AB4EEE2
:101EE800E67AF1EE10FA1FD9B4EEC67AF1EE10FADE
:101EF8001CDAF0EE475AFEEEE05A15EE902A43F847
:101F0800212002318C427FF65DAC4A080CEB820539
:101F1800920095ED007A27EE877AB4EEE67AF1EE34
:101F280010FACAD80546D3E70246E8E73246E6E79C
:101F38003546CDE7007E00800082FF7F30B5184C23
:101F4800154685B0046004F1080EEC460FC98EE80A
:101F58000F00D4ED047AF5EEC07A8CE80F00F1EEAC
:101F680010FA1ADDB7EE006A94ED057A27EE277AA3
:101F7800C6EE276A84ED0D7AC4ED0C6A6DB1204671
:101F880040F8185F01F0B6FD064903690020064ACB
:101F98002162A262E36005B030BD012005B030BD0A
:101FA800E8050024002000300000003000680830F8
:101FB800704700BFB1F5807F03680A4628BF4FF419
:101FC8008072B1F5807F9A6094BF0020012070472D
:101FD8000068183001F0E6BD70B504688AB0A369DE
:101FE800E1600BB304F118056FF0F4134FF60B72B0
:101FF8002846ADF80C20CDE9013301F07BFD84467D
:10200800EE46E668BCE80F00AEE80F00BCE80F003B
:10201800AEE80F009CE803008EE8030069462846F6
:10202800049601F065FC30BBE3690BB304F11C05B1
:102038006FF0F4134FF60B722846ADF80C20CDE97B
:10204800013301F057FD8446EE46E468BCE80F0012
:10205800AEE80F00BCE80F00AEE80F009CE80300F4
:102068008EE8030069462846049401F041FC10B943
:1020780000200AB070BD01200AB070BD30B50468F8
:1020880083B00D46E3694BB1A3680020E26A616A38
:102098009B00009004F11C0001F02EFDA368074886
:1020A800A26A9B00216A009004F1180001F024FD47
:1020B8000020C4E9005003B030BD00BFD5110008AE
:1020C800064B302003214FF07E52C3E90201002065
:1020D80000211A615A61C3E906017047E805002426
:1020E80084460FC98CE80F009CF800300B2B37D0C2
:1020F80000B59CF801E091B0BEF10F0F2DD8022970
:102108003FD0032904D0A1F10101B1FA81F14909B5
:10211800DCF808200C91012A05D0A2F10202B2FADB
:1021280082F252095200DCF80C100D92022906D0F6
:10213800032904D0A1F10101B1FA81F149090A2B5F
:102148000E910ED900231846CCF8103001230BA9A4
:1021580003FA0EF30B9303F0B1FD11B05DF804FB25
:1021680070475B4A591E02EB8323CCF810300929CB
:1021780000F29F80DFE801F08E7F706152433425C2
:1021880016071121C4E7534B5348D3F8E02042F413
:102198008062C3F8E020D3F8E03003F480630A9348
:1021A8000A9BD3E74B4B4D48D3F8E02042F400722A
:1021B800C3F8E020D3F8E03003F400730993099BD7
:1021C800C4E7444B4648D3F8E02042F48072C3F891
:1021D800E020D3F8E03003F480730893089BB5E758
:1021E8003C4B4048D3F8E02042F08002C3F8E0209E
:1021F800D3F8E03003F080030793079BA6E7354B3D
:102208003948D3F8E02042F04002C3F8E020D3F880
:10221800E03003F040030693069B97E72D4B3348C5
:10222800D3F8E02042F02002C3F8E020D3F8E030F1
:1022380003F020030593059B88E7264B2C48D3F829
:10224800E02042F01002C3F8E020D3F8E03003F0B9
:1022580010030493049B79E71E4B2648D3F8E0202B
:1022680042F00802C3F8E020D3F8E03003F0080396
:102278000393039B6AE7174B1F48D3F8E02042F00B
:102288000402C3F8E020D3F8E03003F0040302931B
:10229800029B5BE70F4B1948D3F8E02042F002029B
:1022A800C3F8E020D3F8E03003F002030193019B68
:1022B8004CE7084B0648D3F8E02042F00102C3F887
:1022C800E020D3F8E03003F001030093009B3DE7E2
:1022D80000000258004402580028025800240258FE
:1022E80000200258001C0258001802580014025816
:1022F80000100258000C0258000802580004025846
:1023080010B592B00180ADF80410C9B2149C0B2925
:10231800C460C0E901232FD090F801E08446BEF1E3
:102328000F0F29D8022A39D0032A04D0A2F10102BA
:10233800B2FA82F25209012B0E9205D0A3F10203E0
:10234800B3FA83F35B095B00022C0F9306D0032CCE
:1023580004D0A4F10104B4FA84F464090A2910949D
:102368000CD900231846CCF8103001230DA903FA24
:102378000EF30D9303F0A2FC12B010BD5B4B4A1E86
:1023880003EB8123CCF81030092A00F29F80DFE8A4
:1023980002F08E7F70615243342516071122CAE776
:1023A800534B5448D3F8E02042F48062C3F8E0204D
:1023B800D3F8E03003F480630C930C9BD5E74C4BC7
:1023C8004D48D3F8E02042F40072C3F8E020D3F877
:1023D800E03003F400730B930B9BC6E7444B47486C
:1023E800D3F8E02042F48072C3F8E020D3F8E0305C
:1023F80003F480730A930A9BB7E73D4B4048D3F830
:10240800E02042F08002C3F8E020D3F8E03003F087
:1024180080030993099BA8E7354B3A48D3F8E02095
:1024280042F04002C3F8E020D3F8E03003F0400364
:102438000893089B99E72E4B3348D3F8E02042F0E5
:102448002002C3F8E020D3F8E03003F0200307931C
:10245800079B8AE7264B2D48D3F8E02042F010026C
:10246800C3F8E020D3F8E03003F010030693069B8E
:102478007BE71F4B2648D3F8E02042F00802C3F858
:10248800E020D3F8E03003F008030593059B6CE7E0
:10249800174B2048D3F8E02042F00402C3F8E020AC
:1024A800D3F8E03003F004030493049B5DE7104B7A
:1024B8001948D3F8E02042F00202C3F8E020D3F82C
:1024C800E03003F002030393039B4EE7084B0748F1
:1024D800D3F8E02042F00102C3F8E020D3F8E0305E
:1024E80003F001030293029B3FE700BF000002587C
:1024F80000440258002802580024025800200258BC
:10250800001C025800180258001402580010025803
:10251800000C0258000802580004025808B50121AE
:1025280043780069994089B203F0FEFE003818BF6D
:10253800012008BD01230A464178006903FA01F128
:1025480089B203F0F7BE00BF10B5002386B012228F
:1025580004460393CDE901230368022B23DC002BF7
:1025680001DB0423049323790A2B18D8104800EBC5
:1025780083206279012369469340009303F09EFB10
:10258800A3790A2B0DD80A4800EB8320E2790123AE
:1025980069469340009303F091FB06B010BD0020FC
:1025A800E7E70020F2E7032BDDD106230493DAE7FF
:1025B80000000258634A0368934210B58CB028D0D3
:1025C800614A934258D0614A934200F09480604A2D
:1025D800934201D00CB010BD5E4C5F48D4F8E03097
:1025E80043F00203C4F8E030D4F8E03003F002030B
:1025F8000A930A9BFFF7A8FFD4F8F43043F080034E
:10260800C4F8F430D4F8F43003F080030B930B9B38
:10261800E0E7504C5148D4F8E03043F00203C4F8E6
:10262800E030D4F8E03003F002030193019BFFF798
:102638008BFFD4F8E83000221F2043F40013114622
:10264800C4F8E830D4F8E83003F400130293029B8E
:10265800D4F8D83043F00103C4F8D830D4F8D830CF
:1026680003F001030393039B01F01EFF1F200CB02E
:10267800BDE8104001F054BF364C3948D4F8E0307A
:1026880043F08003C4F8E030D4F8E03003F080036E
:102698000493049BD4F8E03043F00203C4F8E0301C
:1026A800D4F8E03003F002030593059BFFF74CFFD5
:1026B800D4F8E8300022212043F480031146C4F8FE
:1026C800E830D4F8E83003F480030693069BD4F886
:1026D800D83043F00103C4F8D830D4F8D83003F028
:1026E80001030793079B01F0DFFE21200CB0BDE832
:1026F800104001F015BF1B48FFF726FF154B0022BD
:102708004820D3F8E840114644F40004C3F8E840F0
:10271800D3F8E84004F400040894089CD3F8D8409F
:1027280044F00104C3F8D840D3F8D83003F00103CB
:102738000993099B01F0B8FE48200CB0BDE8104091
:1027480001F0EEBE0054004000580040005C00401C
:10275800001C005800440258C40800242406002421
:1027680004070024E4070024F0B5002287B0184BC2
:102778001021CDF802206F46CDF806209C46CDF8F2
:102788000A206E46CDF80E200CF11805CDF812205F
:102798000CF1300EADF81620FF220E4B6C46ADF84A
:1027A80000101A700FCFACE80F0097E803008CE810
:1027B80003000FCE0FC596E8030085E803000FCC91
:1027C800AEE80F0094E803008EE8030007B0F0BD00
:1027D800040000242006002410B5EFF3108472B61C
:1027E800084B1A78120602D504B962B610BD1B78D8
:1027F80005485BB2C3EBC30300EB431003F04AF890
:10280800F2E700BF2006002438060024014804F03F
:102818000FBF00BFB0060024014804F009BF00BF85
:1028280090070024014804F003BF00BF700800248B
:102838002DE9F0430D6885B03E4EC5EBC503032D69
:102848004FEA431706EB431303605BDCCA680C4688
:10285800012A57D84FEAC50850D020689C466168BD
:10286800A8EB0509A2680DF1100EE36806EB4919FB
:10287800ACE80F00304B227C8CF80020D9F808C057
:102888000FCB0EE90F000EEB8503BCF1010F53F8D7
:10289800103CC9F88C3043D0BCF1020F36D0BCF1E3
:1028A800000F08D101F0F8FB244B98420CBF244BD1
:1028B800244BC9F890308C37227CA8EB05080023FC
:1028C8003744520006EB481601213846C6F8AC30AA
:1028D800C6E92521C6E92733C6E9293304F068FB90
:1028E80080B90146384604F0AFFE58B9014638466B
:1028F80004F0D4FE003818BF012004E00A7C103A26
:10290800672AAAD9012005B0BDE8F08301F0C4FB0D
:102918000A4B98420CBF0C4B0C4BC9F89030CAE7D5
:1029280001F0BAFB054B98420CBF094B094BC9F89B
:102938009030C0E724060024D8160108000E2707A7
:102948005F4390608A62E030200BA0101A09801063
:102958002D0FB0303211D0202DE9F041D0F8008091
:1029680082B00D4617461E4608F18C04204604F036
:1029780067FE2028FAD1D8F80C3073B96D002046CC
:10298800089C33463A46A9B2009404F067FB003825
:1029980018BF012002B0BDE8F081089B32463946D5
:1029A800204604F01DFDF2E7094B6FF0F4111022E8
:1029B8005960C3F8E4101A7483F8F020C3F8C411FE
:1029C80083F8D021C3F8A41283F8B022704700BF5F
:1029D8002406002430B5002395B04FF480710622F8
:1029E80004460B9306921393CDE90C13CDE90E33ED
:1029F800CDE9113301F052FB07282AD004F1100564
:102A080041F2883206A9284605F098FE28B101232C
:102A180084F85C30012015B030BD0223102206A9CD
:102A2800284602920022CDE90033012303934FF494
:102A38008003CDE9042305224FF0807306926A468D
:102A48000F9341F2883306F009F80028DFD115B05A
:102A580030BD032384F85C30DCE700BF00000000D1
:102A680070B50023A4B04FF080724FF4807504460F
:102A7800ADF806301B93CDE91E320122CDE91C5377
:102A8800CDE92023CDE92233002942D0F02300F1FB
:102A9800100516AEADF80630C02341F28832314633
:102AA8002846169305F04AFE28B1012384F85C30C5
:102AB800012024B070BD41F288320DF1060128468C
:102AC80005F0AAFE03460028EFD14FF480710522D5
:102AD800284601250892102210930D93159302930E
:102AE8000595CDE90E139FED1E7B4FF08071CDE962
:102AF8001333119141F2883308A9CDE9035202AA90
:102B08008DED067B05F0AAFF0028D2D084F85C5032
:102B1800CEE700F1100516AE612341F28832314646
:102B28002846169305F00AFE0028BED141F28832E5
:102B38000DF10601284605F0FDFE0028B5D1BDF8C7
:102B48000630204623F0780343F04003ADF8063002
:102B5800FFF740FF00289FD0A7E700BFAFF3008032
:102B680000000000000040002DE9F04F00234FF462
:102B7800807601254FF0807804462DED028BABB0AE
:102B88008DF80730219313931B9322961C95CDF84B
:102B98009480CDE92333CDE92653CDE92833CDE917
:102BA8001463CDE91633CDE9193306230E9301F0EA
:102BB80075FA072808D004F1100741F288320EA9E7
:102BC800384605F0BBFD40B1012384F85C30012094
:102BD8002BB0BDEC028BBDE8F08F02234FF0100A3A
:102BE8004FF0050908AA0EA938460B95CDF85C8068
:102BF800CDF828A0CDF838909FED2B8BCDE9083380
:102C080041F288338DED0C8B05F028FF0028DBD1CD
:102C180041F2883238461CA905F090FD0028D3D12E
:102C28004FF0400B41F288320DF1070138468DF81C
:102C380007B005F0F1FD0028C6D143224FF4004348
:102C48001CA93846CDF808B00595CDF87090CDF898
:102C58009480CDE9032341F2883302AA8DED068BD7
:102C680005F0FCFE03460028AED1139308AA1B9377
:102C78000EA938461496CDF83890CDF85C80CDF87A
:102C880028A00B95CDE91533CDE91933CDE90835E1
:102C980041F288338DED0C8B05F0E0FE002897D0CB
:102CA80084F85C5093E700BF00000000000040007B
:102CB8002DE9F04700234FF4807601254FF0807806
:102CC80004462DED028BAAB0CDE92333219313934B
:102CD8001B9322961C95CDF89480CDE92653CDE917
:102CE8002833CDE91463CDE91633CDE9193306232A
:102CF8000E9301F0D3F9072808D004F1100741F228
:102D080088320EA9384605F019FD40B1012384F830
:102D18005C3001202AB0BDEC028BBDE8F0870223AD
:102D28004FF0100A4FF0050908AA0EA938460B956E
:102D3800CDF85C80CDF828A0CDF838909FED2C8B8D
:102D4800CDE9083341F288338DED0C8B05F086FE12
:102D58000028DBD141F2883238461CA905F0EEFC88
:102D68000028D3D1402341F288320DF107013846BB
:102D78008DF8073005F050FD0028C7D19DF80730C1
:102D880008AA0C90FF2008934FF400431CA90B9548
:102D9800CDF87090CDF89480CDE909034FF4800305
:102DA80038460D9341F2883305F058FE0346002853
:102DB800ACD113930EA91B933846029302AA14961A
:102DC800CDF83890CDF85C80CDF810A00395059526
:102DD800CDE91533CDE9193341F288338DED068BF2
:102DE80005F03CFE002895D084F85C5091E700BFC0
:102DF800000000000000400070B50122AAB004469F
:102E08000D465D48C02103F095FA00265B4B0696F7
:102E1800594895FAA5F5CDE90466D3F8E02042F0C3
:102E28002002C3F8E020C022D3F8E03003F02003EA
:102E380001930123019902A9CDE9022302F03EFF83
:102E4800142001F007FB3246C0214B4803F072FA08
:102E5800142001F0FFFA0122C021474803F06AFA62
:102E6800142001F0F7FA0123454AE6612261C4E91A
:102E78000533002D74D0B5FA85F1013900234FF4DC
:102E8800807604F11005C4E908162846C4E90B3316
:102E980005F0E4FB30B101231D4684F85C30284678
:102EA8002AB070BD66231690179041F288321390AD
:102EB8000EA91B900E93CDE91460CDE919002846A0
:102EC80005F03CFC0028E6D199230EA941F288328E
:102ED80028460E9305F032FC0028DCD10523012298
:102EE800102124901C934FF080732190259341F278
:102EF8008833299008900B929FED1D7BCDE909211D
:102F0800CDE92260CDE9270008AA1CA928468DED45
:102F18000C7B05F0A3FD0028BDD12046FFF7C8FEB5
:102F28000028B8D1284605F0F7FB05460028B2D19D
:102F380023790A2B18D963790121994003F0C4F841
:102F4800A3790A2B0ED80F4800EB83200126E179DC
:102F580006FA01F103F0B8F8266684F864609EE783
:102F68001F218BE70020F1E7064800EB8320E2E70A
:102F780000000000000040000014025800440258FD
:102F880000500052000002582DE9F043684CA3B0ED
:102F98000D46046001F082F8072858D028682346B7
:102FA800AA68696807C3AA89184620F8042B267BF3
:102FB800677B05F0B1FB002838D194F86430002B0A
:102FC8003CD1012E204623660CBF4FF400054FF478
:102FD80080152946FFF710FF564B95FAA5F5236192
:102FE8000123C4E905330023E361002D6FD0B5FA4E
:102FF80085F1013900234FF480784F48C4E9081857
:10300800C4E90B3305F02AFB80B966230B901390B3
:1030180041F2883206A90693CDE90C80CDE90E006D
:10302800CDE91100444805F089FBA0B1012384F8DB
:103038005C300125284623B0BDE8F08301239E4279
:10304800236614BF4FF480154FF40005C4E703232B
:1030580084F85C30EDE7992341F2883206A93648B6
:10306800069305F06BFB0028E0D105234FF001091A
:103078001C906A4614934FF08073199014A91D93FD
:10308800102321900090029341F28833CDF80490E8
:10309800CDF80C909FED247BCDE91A80CDE91F0077
:1030A80025488DED047B05F0D9FC0028BED13146BA
:1030B8001F48FFF7D5FC0028B8D11D48FFF754FD7D
:1030C80005460028B2D127B102232366B2E71F21A3
:1030D80090E7EB230026189706AA14934FF4406351
:1030E80014A915481B934FF40053CDF86880179323
:1030F8004FF440431C93A0231693062319934FF0D3
:103108008053CDE91F77219300274FF04073CDE915
:1031180006671D9305F030FD0028D5D084F85C9033
:1031280087E700BFAFF30080000000000000400008
:10313800A809002400500052B80900245D4A01681B
:103148002DE9F04F91428FB04FF00004CDE90944CA
:10315800CDE90B440D9402D00FB0BDE8F08F564A6C
:1031680006ADDFF860A10DF11C0BD2F8D4304FF09A
:1031780002085AF8080CAAF1680743F480434F4E36
:10318800DFF84491C2F8D430D2F8D43003F4804345
:103198000193019BD36F43F48043D367D36F23F428
:1031A8008043D367D2F8E03043F04003C2F8E03000
:1031B800D2F8E03003F040030293029BD2F8E030EB
:1031C80043F02003C2F8E030D2F8E03003F02003E7
:1031D8000393039BD2F8E03043F01003C2F8E030C9
:1031E800D2F8E03003F010030493049BD2F8E030E7
:1031F80043F00203C2F8E030D2F8E03003F00203F3
:103208000593059B28BBE3B2032B40D8DAF81830A6
:103218001A780A2A36D85978294B03EB82230122D7
:103228008A40002009920322CDF81890CDF8288012
:10323800CDE90B022A78184609A90D9202F03EFD45
:10324800386E013401350BF1010B0AF1040A00282C
:10325800D9D0062C1BD0DAF800301A780A2A21D9DE
:103268005B7801229A4000230021CDE90928032236
:10327800CDE90B1296E803000790ADF820109BF8F3
:103288000020D8E75978012203468A40C9E700227E
:103298005C20114601F008F95C2001F041F90FB0FB
:1032A800BDE8F08F5978064B03EB822301228A4050
:1032B800DAE700BF00500052004402581017010816
:1032C80000000258100A00240A0A090A4D4B026835
:1032D8009A4200D070474C4A70B5D2F8D4304B4C63
:1032E80023F48043216EC2F8D43000296DD0A36E38
:1032F8001A780A2A6ED8464800EB82205B780121AA
:10330800994089B202F0E0FE236E002B69D0E36E8B
:103318001A780A2A68D83E4800EB82205B78012197
:10332800994089B202F0D0FE236E002B5ED0236F45
:103338001A780A2A5DD8364800EB82205B7801218A
:10334800994089B202F0C0FE236E002B55D0636FFE
:103358001A780A2A4FD82E4800EB82205B78012180
:10336800994089B202F0B0FE236E002B34D0A36FCF
:103378001A780A2A44D8264800EB82205B78012173
:103388000525224E994089B202F09EFE236EEAB2CC
:10339800BBB9032A20D8D6F894301A7800201C49E3
:1033A80001350A2A5B7806F1040698BF01EB8220F2
:1033B8000121994089B202F087FE236EEAB2002B00
:1033C800E7D0062D08D0F36FE7E7D4F880301A78F5
:1033D8000A2A90D9002091E75C20BDE8704001F0EE
:1033E800ADB8D4F8843093E7002097E7D4F8883054
:1033F8009EE70020A2E70020B0E7D4F88C30A7E7CA
:103408000020BBE70050005200440258A8090024DD
:1034180000000258014805F03DBC00BFB80900246F
:103428000E4B6FF0F4120021981C30B41C1D9D1D2A
:103438009A60196683F8641003F108015D671C67D8
:10344800C3E9002203F10A0230BCC3E91A30C3E918
:103458001E12C3E92030C3E922127047A8090024CC
:103468002DE9F043C2888BB005468388ADF8042067
:1034780000896989AA89ADF80630AB69ADF80800FA
:10348800ADF80A10ADF80C20002B43D0EB69B3FA65
:1034980083F84FEA58180126022301AC0DF10E07F4
:1034A800DFF884900796CDE9053606E0002004A9E8
:1034B80002F004FC0234A74221D023782A796178EB
:1034C8009A420ED02A6806FA01F0AAB1012A02D15E
:1034D800C3B10A2208920A2B0490E7D809EB83208B
:1034E800E5E76A798A42EDD1B8F1000FE2D02A689F
:1034F80006FA01F0002AE9D106220892EBE70BB0A0
:10350800BDE8F083022908D00A22049009EB832041
:103518000892CCE74FF00108BDE7082209EB8320A9
:10352800089204220492C2E700000258A04A0368E5
:10353800934270B505468AB07FD0203293427CD042
:103548009C4A934204D02032934201D00AB070BD05
:10355800994C9A48D4F8E03043F00103C4F8E030BD
:10356800D4F8E03003F001030593059BD4F8E0306C
:1035780043F00803C4F8E030D4F8E03003F008035F
:103588000693069BD4F8E03043F04003C4F8E030DB
:10359800D4F8E03003F040030793079BD4F8F030E9
:1035A80043F40003C4F8F030D4F8F03003F4000317
:1035B8000893089BFFF754FFD4F8D820804B42F0BB
:1035C80001022968D3F85C02C4F8D820D4F8D820BE
:1035D80002F001020992774A099C914200F0AB80FF
:1035E800D3F88022013A18BF01229201002840F046
:1035F800CC807448582103F22C4403F54775C3F86E
:103608002C0400232046C4E901124FF480524FF4E1
:103618008061636262614FF48042C4E903314FF410
:103628008073C4E906234FF40033236201F0EEF8F7
:10363800002800F09580FFBEFEE75F4C604ED4F88E
:10364800E030304643F00103C4F8E030D4F8E0300D
:1036580003F001030093009BD4F8E03043F010031B
:10366800C4F8E030D4F8E03003F010030193019B74
:10367800D4F8E03043F04003C4F8E030D4F8E03048
:1036880003F040030293029BD4F8F03043F4800324
:10369800C4F8F030D4F8F03003F480030393039BAC
:1036A800FFF7DEFED4F8D830296843F00103404A1A
:1036B8003068C4F8D8309142D4F8D83003F0010308
:1036C8000493049B27D0736A013B18BF01239B0115
:1036D800002852D13B4A06F5E8745821C036C6F88E
:1036E800102100222046C4E901134FF480534FF4FF
:1036F8008061626263614FF48073C4E903214FF40F
:103708008042C4E906234FF40033236201F07EF8B7
:1037180008B3FFBEFEE7336A013B18BF01239B01D4
:1037280018BB02F5284206F5AC74572128360C322E
:10373800C6F83021D5E7D3F87C22013A18BF012218
:10374800920158BB2048572103F56D7403F5217584
:10375800C3F8B40355E7C6E92044A6630AB070BDB0
:10376800C5E92044A5630AB070BD184A06F5AC74D3
:1037780059212836C6F83021B3E7154A06F5E8740A
:103788005A21C036C6F81021ABE711485A2103F276
:103798002C4403F54775C3F82C0432E70B4859212C
:1037A80003F56D7403F52175C3F8B40329E700BF69
:1037B80004580140045C014000440258940C002461
:1037C800380A002428000240100002405800024035
:1037D80070000240014802F05DB800BF900B002461
:1037E800014802F057B800BF080C0024014802F055
:1037F80051B800BFEC0D0024014802F04BB800BFDF
:10380800640E00241A4A0368934210B40BD0203285
:10381800934208D0174A934216D02032934213D0CD
:103828005DF8044B7047144B0022D3F85442C3F898
:103838005822D3E99201002CF2D0D3F85022234623
:103848005DF8044B520818470B4B0022D3F8B044DC
:10385800D3F8A404D3F8A814C3F8B424002CDFD0F8
:10386800D3F8AC2423465DF8044B5208184700BF30
:1038780004580140045C0140380A0024184A0368CF
:10388800934210B40BD02032934208D0154A934289
:1038980017D02032934214D05DF8044B7047124B76
:1038A800D3E99424D3E992015208C3F85822002C92
:1038B800F2D0234601EB820100EB82005DF8044B55
:1038C8001847094BD3F8AC24D3F8B0445208D3F8BE
:1038D800A404D3F8A814C3F8B424002CE9D1DBE776
:1038E80004580140045C0140380A0024000000002C
:1038F8002DE9F0470C684FF417767B4D84B004FB34
:1039080006F6012C05EB0608C0F8008000F39B8042
:10391800002206F512730F468E46EA502B44C44621
:103928005A60C8F850226CA3D3E900236CA1D1E9EE
:103938000001CDE9002304AB03EB8403CDE90201C8
:1039480053F810AC53F8089CBEE80F00ACE80F0021
:10395800BEE80F00ACE80F009EE80300C8F828A0F6
:10396800C8F8C0908CE803003B69042B0DD8DFE849
:1039780003F079838D0397004FF417734BF6803269
:1039880003FB04539A64C3F8E020BA69396A002A31
:1039980055D000294FF0010214BF032102214FF432
:1039A800177303FB0453C3E90B12FA69796A002AF7
:1039B8004DD1003918BF01214FF4177303FB04538D
:1039C800C3E931127B69012B7FD0022B46D14FF01E
:1039D80003094FF000084FF41773444F06F128000D
:1039E80004FB03F30024284403F1380E03F1500CC0
:1039F80003F1D00103F1E80247F80E402B44BE441E
:103A0800CEF804405C645C6347F80C40BC44CCF8D6
:103A18000440DC657C5039444C604146C3F8DC40C6
:103A2800C3F8CC40BC503A4454604A46C3F8F4400A
:103A3800022307F0A5FD00283BD0FFBEFEE70039B2
:103A480018BF0121ABE7012004B0BDE8F0870029C9
:103A58004FF0010214BF03210221ADE74FF0000926
:103A6800C846B8E74FF417734FF4FA5203FB0453F0
:103A78009A64C3F8E02088E74FF417734FF47A523A
:103A880003FB04539A64C3F8E0207EE74FF41773EE
:103A98004FF4FA4203FB04539A64C3F8E02074E736
:103AA8004FF41773124A03FB04539A64C3F8E020D7
:103AB8006BE706F1C00002234A464146284407F056
:103AC8005FFD0028C0D0FFBEFEE74FF00209984610
:103AD80081E700BFAFF3008004580140045C014057
:103AE80024580140245C0140380A00243C0A002480
:103AF8000077010000687047F8B504689DB20F466A
:103B08001646C4F85032069BC4F85432A369012BF8
:103B1800C4E9921222D0636A2A46012B0FD031469B
:103B280004F1C00007F0D8FD236A2A46012B0ED005
:103B3800314604F1280007F0CFFD0020F8BD04F15C
:103B4800C00007F053FE236A2A46012BF0D13946FC
:103B580004F1280007F04AFE0020F8BD236A2A462F
:103B6800012B0FD0314604F1280007F0B5FD636A38
:103B78002A46012B0ED0314604F1C00007F0ACFDF7
:103B88000020F8BD04F1280007F030FE636A2A46D9
:103B9800012BF0D1394604F1C00007F027FE0020C0
:103BA800F8BD00BF03681B69042B05D8044A02EB63
:103BB800830393ED000A70479FED020A704700BF28
:103BC8001817010800803B470368D3F8580270476C
:103BD800064B6FF0F4124FF60B71C3E9012299817D
:103BE800A3F86812C3E99822704700BF380A002476
:103BF800704700BF08B500F01BFCBDE8084000F0A6
:103C080017BD00BF064808B503680BB102F096FB64
:103C1800044803681BB1BDE8084003F06BBD08BD4C
:103C280008140024F80E0024064808B503680BB1F0
:103C380002F084FB044803681BB1BDE8084003F0A8
:103C480059BD08BD08140024F80E0024064808B51C
:103C580003680BB102F072FB044803681BB1BDE8AE
:103C6800084003F047BD08BD08140024F80E0024DE
:103C7800364BDA6A520062D59A6A9A6A9A6A9B6ADD
:103C8800180600D500BE314B9B6A990600D500BEC8
:103C98002E4B9B6ADA0600D500BE2C4B9B6A1B078D
:103CA80000D500BE294B9B6A980700D500BE274B5C
:103CB8009B6AD90700D500BE244B9B6A1A0400D51D
:103CC80000BE224B9B6A9B0400D500BE1F4B9B6A1B
:103CD800D80400D500BE1D4B9B6A190500D500BE4F
:103CE8001A4B9B6A5A0500D500BE184B9B6A9B0568
:103CF80000D500BE154B9B6AD80500D500BE134BF6
:103D08009B6A990100D500BE104B9B6ADA0100D569
:103D180000BE0E4B9B6A1B0300D500BE0B4B9B6A73
:103D2800580300D500BE094B9B6A990300D500BE15
:103D3800064B9B6ADA0306D400BE00BEFEE7DB6AC8
:103D48009B07FAD5F8E700BEF6E700BF00ED00E0F4
:103D580000F080BB0A4B9B6803F17843B3F5003F42
:103D68000BD3084B986848B19868012806D0986822
:103D7800022803D09868032070470120704700BFCD
:103D880000ED00E0000080382DE9F041CEB0044697
:103D98004C2200210AA8FCF7E7FA2022002102A8F9
:103DA800FCF7E2FAC02200211EA8FCF7DDFA022087
:103DB80004F064FB2368012B4FF0000350D0564AEF
:103DC80002250193C820D16A544B21F00101D16228
:103DD800D26A02F0010201929A6942F440429A6161
:103DE8009B6903F440430193019B4C4A93699904EE
:103DF800FCD54B490224002201268B6A4FF00408A7
:103E0800082723F0030323438B62052316900AA88F
:103E180018934FF48033109617941994CDF8548062
:103E28001A97CDE91B222122CDE91344CDE90A23B3
:103E380005F0AAF800B1FEE7402329463F224FF4D7
:103E480080650993049002A805970895CDE9063383
:103E58000323CDE9022305F019FC0346B8B1FEE7B8
:103E68002E4A04250093F02091692B4B41F44041E0
:103E78009161926902F440420092DA6A42F00102CA
:103E8800DA62DB6A03F001030093009BADE72022AE
:103E980026933F9380212C924FF480522D95002534
:103EA80027921EA83692062225914FF44011289297
:103EB80040F22712CDF8AC802992102220962A923F
:103EC800022224964091CDE92E334FF48033CDE978
:103ED80022743293002447938023CDE93C45CDE9F1
:103EE80034234FF480740C23002544940224219336
:103EF80007A3D3E90023CDE93045CDE91E2305F01A
:103F08009FFE00B1FEE704F0DDFA4EB0BDE8F08197
:103F18000F130F0300000000000400580048025867
:103F28000044025870B584B0012400F02FFB4FF410
:103F380080764FF04052194B6846ADF80040019228
:103F480000250293039600F03FFB192368468DF87D
:103F58000F408DF808304FF04043ADF80D600193E5
:103F68008DF801408DF80A5000F02EFB02230B2239
:103F780068468DF80F508DF801304FF062538DF878
:103F880008200193ADF80D408DF80A4000F01CFBA5
:103F9800042000F009FB04B070BD00BF0E0001034F
:103FA80030B50C46054685B0D1E9000185E8030027
:103FB80000F00EFAA379002B63D00BF02FFBFEF76D
:103FC800D3FB09F00DFE0AF0C7FF23795BB3304934
:103FD8004B6913F4803326D1C1F88430BFF34F8F77
:103FE800D1F8805043F6E07EC5F34E3CC5F3C905D1
:103FF8004FEA4C1C0CEA0E002B4640EA8372013B48
:10400800C1F860225A1CF8D1ACF1200C1CF1200F29
:10401800F0D1BFF34F8F4B6943F480334B61BFF34B
:104028004F8FBFF36F8F6379B3B1194A536913F494
:10403800003311D1BFF34F8FBFF36F8FC2F85032E7
:10404800BFF34F8FBFF36F8F536943F4003353614E
:10405800BFF34F8FBFF36F8F4FF0FF320023002461
:10406800002569460B4802928DF80C30CDE90045D1
:104078000AF0BEF907480AF023FA08F089FF05B0EC
:1040880030BD2846FFF780FE2846FFF74BFF94E730
:1040980000ED00E0F00E002405F062BC1C4B9B68AC
:1040A80003F17842B2F5003F25D3B3F5803F20D322
:1040B80003F16042B2F5003F1FD303F15C42B2F551
:1040C800002F1CD303F17042B2F5902F19D303F1DE
:1040D8004842B2F5803F16D303F18042B2F1806FB7
:1040E80013D303F1E043B3F5000F34BF07200820D2
:1040F8007047012070470020704702207047032056
:10410800704704207047052070470620704700BF9D
:1041180000ED00E003480023034A044903600DF062
:10412800C9BA00BFF00E002400000024F93B0008C3
:1041380010B4204C0022204B83B0D4F888001F49CB
:1041480040F47000C4F8880018681D4C40F0010065
:1041580018601A611868014019609A61DA611A6278
:104168009A62DA621A635A639A63DA631A645A645F
:10417800196821F4802119601A66D3F8DC2042F00E
:104188006042C3F8DC20D3F8DC300193019B23683C
:104198006FF30F03B3F1005F03D20A4B0122C3F898
:1041A8000821044B4FF000629A6003B05DF8044B9D
:1041B800704700BF00ED00E0004402587FEDF6EACA
:1041C8000010005C0080005100F2C441D0F80805DE
:1041D80008F050BA01EBC10300EB8303D0F80805DF
:1041E800D3F8882208F076BA01EBC10300EB830309
:1041F800D0F808059A6C08F0A7BA00BFD0F80805EF
:1042080008F050BB016910B5044619B1022900D065
:10421800FEE70121D4F8080508F024FBD4F80805C6
:10422800BDE8104008F0F0BA10B50446D0F808050B
:1042380008F01CFB2268D2F8003E43F00103C2F8E4
:10424800003E236A23B1034A136943F0060313614E
:1042580010BD00BF00ED00E0D0F8080508F016BB5F
:10426800D0F8080508F044BBD0F8080508F02ABBC8
:10427800D0F8080508F052BBD0F8080508F050BB84
:104288009446D0F8C8021A4608B5634603F0F2FF10
:1042980018B102280CBF0120032008BD08B5D0F8CA
:1042A800C80204F069F818B102280CBF01200320E5
:1042B80008BD00BF08B5D0F8C80204F0A1F818B1CD
:1042C80002280CBF0120032008BD00BF0A06D0F851
:1042D800C83206D401EBC10103EB810393F87E02D7
:1042E800704701F07F0101EBC10103EB810393F8F3
:1042F8003E00704708B5D0F8C80203F0A5FF18B112
:1043080002280CBF0120032008BD00BF08B5D0F863
:10431800C80204F00FF818B102280CBF01200320CE
:1043280008BD00BF08B5D0F8C80203F0E1FF18B116
:1043380002280CBF0120032008BD00BFD0F80003ED
:1043480008F0E0BDD0F8000308F0F4BDD0F8000391
:1043580008F0FCBD704700BFD0F8000308F0E2BDCC
:10436800D0F8000308F0E2BD08B5D0F8D40302F095
:104378009FFC18B102280CBF0120022008BD00BF15
:10438800704700BF0F4B1B780BB90120704710B561
:1043980004464FF47A700C4AB0FBF3F31068B0FB94
:1043A800F3F000F0DDF80F2C00D808B1012010BDA3
:1043B800002221464FF0FF3000F076F8034B002032
:1043C8001C6010BD54000024500000245800002434
:1043D80010B50320124C00F055F805F0C9F8114B40
:1043E80011499A699B69C2F3032203F00F038A5C9F
:1043F800CB5C02F01F020D4903F01F03D04020FAE6
:1044080003F308600E202360FFF7BCFF10B10124FE
:10441800204610BD0446FFF7B3FF204610BD00BF7D
:104428004C000024004402582C17010850000024B6
:10443800034A044B11681B780B441360704700BF94
:104448000C17002454000024014B1868704700BF63
:104458000C17002438B50446FFF7F6FF0546631C21
:1044680002D0044B1B781C44FFF7EEFF401BA04210
:10447800FAD338BD54000024014B1868000C70476B
:104488000010005C06494FF6FF0C0002054BCA6895
:1044980000F4E06002EA0C0210430343CB6070476B
:1044A80000ED00E00000FA051A4BDB68C3F30223B5
:1044B80000B5C3F1070E03F1040CBEF1040F28BFC9
:1044C8004FF0040EBCF1060F1AD9A3F1030C4FF0FC
:1044D800FF3303FA0CF322EA03024FF0FF330028FC
:1044E80003FA0EF321EA030303FA0CF343EA020387
:1044F8004FEA0313DBB206DB074A13545DF804FBEB
:1045080000229446E9E700F00F00044A13545DF8CE
:1045180004FB00BF00ED00E000E400E014ED00E063
:10452800002807DB012300F01F01034A40098B40E4
:1045380042F82030704700BF00E100E000280CDBA3
:104548004309012200F01F0004492033824041F84A
:104558002320BFF34F8FBFF36F8F704700E100E058
:10456800431EB3F1807F01D3012070474FF0E02252
:10457800002005494FF0F00C5361072381F823C050
:1045880090611361704700BF00ED00E0BFF35F8FDB
:10459800044B00215A6A22F480325A62C3F89410FC
:1045A800704700BF00ED00E0064B40F00100C3F883
:1045B80094005A6A42F480325A62BFF34F8FBFF3B5
:1045C8006F8F704700ED00E0174A4378C2F89830C3
:1045D800017821B3436800B5C2F89C30C37A90F8DB
:1045E8000CC01B0690F80FE043EA0C7390F80AC061
:1045F8000B43817B43EACC4390F80DC043EA8C43DC
:1046080090F809C043EA4143017A43EA0E4343EA7A
:104618000C2343EA4103C2F8A0305DF804FBC2F85A
:104628009C10C2F8A010704700ED00E0704700BF72
:1046380008B5FFF7FBFF08BD3649024603688B4201
:1046480033D01831591AB1FA81F1490969BB324896
:1046580083423ED0183083423ED01830834234D053
:10466800183083423BD0183083423ED01830834202
:104678002AD000F55670834235D028498B4231D074
:1046880018318B4234D018318B4234D018318B42D8
:1046980034D018318B4234D018318B4234D0183191
:1046A8008B4234D023F0FF0011E0DBB21C491D48D7
:1046B800103BA1FB031310B41B091B4CE15C5DF814
:1046C800044BC2E91601704716211848D165906558
:1046D800704710211348F9E716211248F6E706211A
:1046E8001248F3E706211248F0E710210F48EDE7DA
:1046F80010210F48EAE716210D48E7E700210D4889
:10470800E4E706210B48E1E710210A48DEE7162115
:104718000848DBE71000024040000240280402403D
:10472800ABAAAAAA000002403C17010804000240F4
:1047380000040240040402400268284B284930B4AF
:10474800284D294CAA4218BF9A420CBF01230023C6
:104758008A4208BF43F001032831A24208BF43F050
:10476800010328348A4208BF43F001032831A242DA
:1047780008BF43F001038A4208BF43F00103D1B2E6
:1047880013B91A4B9A4211D1A1F10803184C194ACE
:104798000121A4FB0343184C1D0902EB1313A94084
:1047A8009B008166C0E9183430BC7047A1F1100342
:1047B8001249134C1144A4FB0343A8294FEA1313CD
:1047C80008D903F01F040F4A01211A44A1400E4CD6
:1047D8009300E6E708331C46F5E700BF0854025883
:1047E800305402581C5402584454025894540258E5
:1047F800CDCCCCCC0096001680580258F0FBFDBFFB
:10480800ABAAAAAA00820010800802402DE9F04F46
:10481800054683B0FFF718FE002D00F0A1812C6833
:104828000646AC4BAC4A944218BF9C4202F11802AF
:104838000CBF01230023944208BF43F00103183240
:10484800944208BF43F001031832944208BF43F072
:1048580001031832944208BF43F00103183294420E
:1048680008BF43F001031832944208BF43F0010324
:1048780002F55672944208BF43F00103183294427D
:1048880008BF43F001031832944208BF43F0010304
:104898001832944208BF43F001031832944208BF0B
:1048A80043F001031832944208BF43F00103183261
:1048B800944208BF43F001031BB9884B9C4240F067
:1048C80096810023022285F8343085F83520236844
:1048D80023F00103236006E0FFF7B6FD801B0528DF
:1048E80000F242812C682368DF07F5D4D5E902304D
:1048F80029690343AA6920680B4369690B43E9697D
:1049080013430B4376490140286A034375480B4318
:10491800696A042900F03D8100686FF30F00B0F167
:10492800005F80F0F1802360636923F007030B4385
:1049380063612846FFF780FEEA6D3F236A4902F06B
:104948001F026A4F611A6A4E93406A4AB1FA81F1AE
:10495800E71B8360A4EB020A674B49095E4ABAFA6F
:104968008AFAA4EB03095B4B4FEA5A1AB7FA87F79E
:10497800944218BF9C4202F11802B9FA89F9A4EBD3
:1049880006060CBF012300234FEA5919B6FA86F62A
:10499800944208BF43F0010318327F09944208BFCC
:1049A80043F0010318327609944208BF43F001032B
:1049B8001832944208BF43F001031832944208BFEA
:1049C80043F001031832944208BF43F0010302F593
:1049D8005672944208BF43F001031832944208BF4C
:1049E80043F001031832944208BF43F00103183220
:1049F800944208BF43F001031832944208BF43F0C1
:104A080001031832944208BF43F00103183294425C
:104A180008BF43F001031832944208BF43F0010372
:104A2800364A4AEA0303A4EB02083C320B43B8FABD
:104A380088F8A4EB020B143249EA03034FEA58182A
:104A4800BBFA8BFBA21A48EA03034FEA5B1BB2FAD4
:104A580082F23B435209334301925BEA030300D1DC
:104A680082B328460091FFF767FEAB680099802B58
:104A780000F083806A682B6ED0B2013AD5E9194CF0
:104A8800072A1860C4F804C07ED84AEA010A441EFE
:104A980049EA0A0948EA090847EA08073E435BEA7F
:104AA800060603D1019B002B00F01D81144A15490D
:104AB8000244920001230020A340C5E91B216B6733
:104AC80010604B6000200123686585F8353003B01D
:104AD800BDE8F08F1000024028000240B8040240F0
:104AE8003F8010FE0010005C1C54025858540258B5
:104AF8006C5402580854025830540258445402580E
:104B08003F9600164059025868682E2832D93F3817
:104B1800132806D87A4E26FA00F0C00701D543F4C8
:104B2800801323600429636923F0070343EA010320
:104B38007FF4FEAEE86AA96A0B4300283FF4F8AE9A
:104B4800002A38D101294DD031F002027FF4F0AEAD
:104B5800C2017FF5EDAE402201236A6585F8353044
:104B6800012003B0BDE8F08F202203236A6585F891
:104B78003530F5E72828D4D9D1E70023A96ED5E93F
:104B880018026B60036051600023C5E91B336B6733
:104B980098E70668D5E90B076FF30F060743B6F1E8
:104BA800005F43EA0703AFD22360636923F007037A
:104BB80043F00403BFE7B2F5005F04D00229CAD965
:104BC8000329C5D0B4E603293FF6B2AE01A252F8D4
:104BD80021F000BF5F4B0008594B00085F4B0008ED
:104BE800ED4B0008B0F1C07F7FF4A2AEB3E7454AB1
:104BF8004549464BA4EB020A611A454FA4EB030949
:104C0800BAFA8AFA1433B1FA81F14FEA5A1AB9FAA0
:104C180089F9A4EB030849094FEA5919E71BB8FABF
:104C280088F84AEA01033B4E78324FEA581849EAB5
:104C38000303B7FA87F7A61BA4EB020B48EA0303A2
:104C48007F09B6FA86F61432BBFA8BFB3B4376092A
:104C5800A21A4FEA5B1B3343B2FA82F25BEA030300
:104C68004FEA5212019201D1002A43D00223DFF801
:104C7800B8E085F83530002385F83430AB68226811
:104C8800402B02EA0E0E33D0A3F18003B3FA83F36C
:104C98005B0998030091D5E9033243EA020C6A697B
:104CA800AB694CEA020C1C4A4CEA030CEB6922443F
:104CB8004CEA030C2B6A4EEA131343EADC0318434D
:104CC800164BA3FB0223206028461B099B00EB65BB
:104CD800FFF7B2FCEB6D0246009903F01F000123B9
:104CE80083405360BDE60E4A0E4902449200E1E655
:104CF8001020CFE7402203236A6585F835302FE777
:104D08000F030F00085402581C540258305402581C
:104D1800585402586C540258F8ABFDA7CDCCCCCCF3
:104D28003F820010400902400F00FEFF002800F0FB
:104D380021822DE9F04790F83440012C00F01782C9
:104D4800012480F8344090F83540012C08D04FF405
:104D580000620023426580F834300120BDE8F08706
:104D68000224694EDFF8A8E180F835400024674D39
:104D780044650468DFF8AC81744518BFB442DFF8B5
:104D8800A8C1D0F858A00CBF01260026444514BF7E
:104D9800B14646F00109AC4218BF64450CBF012575
:104DA800002540F0C380D4F800C02CF0010CC4F8F2
:104DB80000C0D0F86CC0D0E919767E60BCF1000F55
:104DC80007D0D0E91C6777601DB9B9F1000F00F072
:104DD8003081C76D4FF03F0E07F01F080EFA08FE2E
:104DE800CAF808E0276827F480272760636083688B
:104DF800402B00F0C181A160E260026C002D40F000
:104E0800A181434B9C4200F0DE8118339C4200F0A4
:104E1800F681B9F1000F40F0C7813E4B9C4200F08B
:104E280001823D4B9C4200F0098218339C4200F0FD
:104E3800238203F556739C4200F0338218339C4258
:104E480000F0428218339C4200F0498218339C4299
:104E580000F0508218339C4200F0578218339C426D
:104E680000F0678218339C4200F0658218339C4238
:104E780000F07582236823F00E0343F00A032360D1
:104E88001AB1236843F004032360244B244A944254
:104E980018BF9C4202F114020CBF01230023944264
:104EA80008BF43F001031432944208BF43F00103E2
:104EB8001432944208BF43F001031432944208BFED
:104EC80043F001031432944208BF43F00103143243
:104ED800944208BF43F001037BB1036ED0F86CC065
:104EE8001A68D20300F13E81BCF1000F05D0DCF84E
:104EF800003043F48073CCF800302368002043F07E
:104F080001032360BDE8F0877000024028000240DA
:104F18004000024088000240A000024008540258A5
:104F28001C5402585800024010000240744500F01A
:104F38005481444500F05A81B9F1000F40F01F81B7
:104F4800DFF834C4644500F064810CF1180C644542
:104F580000F080810CF1180C644500F084810CF598
:104F6800567C644500F094810CF1180C644500F0FF
:104F7800A2810CF1180C644500F0B3810CF1180CF7
:104F8800644500F0B9810CF1180C644500F0BF814C
:104F98000CF1180C644500F0C3810CF1180C644541
:104FA80000F0CB810CF1180C644500F0CF81DFF8DC
:104FB800CCC3DFF8CCE3744518BF64450EF1280E66
:104FC8000CBF4FF0010C4FF0000C744508BF4CF0BB
:104FD800010C0EF1140E744508BF4CF0010C0EF1D3
:104FE800140E744508BF4CF0010C0EF1140E7445F4
:104FF80008BF4CF0010CD4F800E02EF0010EC4F804
:1050080000E0DFF880E3744508BF4CF0010CBCF108
:10501800000F03D1DFF870C364454FD1D0F86CC0DE
:10502800D0E919677760BCF1000F02D0D0E91C679E
:105038007760DFF844E3DFF85483444518BF7445CC
:1050480008F118080CBF4FF0010E4FF0000E444550
:1050580008BF4EF0010E08F55678444508BF4EF0DB
:10506800010E08F11808444508BF4EF0010E08F17A
:105078001808444508BF4EF0010E08F118084445C9
:1050880008BF4EF0010E08F11808444508BF4EF05D
:10509800010E08F11808444508BF4EF0010E08F14A
:1050A8001808444508BF4EF0010EBEF1000F7FF40A
:1050B80090AEDFF8DCE274453FF48BAEDFF8C0C297
:1050C800DFF8B8E2744518BF64450EF1140E0CBF42
:1050D8004FF0010C4FF0000C744508BF4CF0010C68
:1050E8000EF1140E744508BF4CF0010C0EF1140EAD
:1050F800744508BF4CF0010C0EF1140E744508BF3E
:105108004CF0010C0EF1140E744508BF4CF0010C64
:10511800BCF1000F04D1DFF870C2644540F025816E
:10512800C66D4FF0010C06F01F0E0CFA0EFCCAF803
:1051380004C063608368402B00F01381A160E260C3
:10514800026C5EE6236823F01E0343F01603236017
:105158001AB1236843F008032360036E1A68D20368
:105168007FF5C2AE1A6842F480721A60BCE602206B
:10517800BDE8F08701207047A260E1603DE6DFF8F6
:10518800F0E1DEF870C02CF0010CCEF870C0D0F859
:105198006CC0D0E919677760BCF1000F3FF419AE15
:1051A800D0E91C67776014E671490B6F23F01E0382
:1051B80043F016030B67002A3FF48FAE236843F0D1
:1051C8000803236089E66A490B6C23F01E0343F049
:1051D80016030B64002AF1D17FE6DFF894E1DEF8CC
:1051E80040C02CF0010CCEF840C0E2E5DFF880E1C9
:1051F800DEF858C02CF0010CCEF858C0C7E75C495F
:105208008B6D23F01E0343F016038B65002AD5D15E
:1052180063E6DFF85CE1DEF888C02CF0010CCEF81C
:1052280088C0FBE65249D1F8883023F01E0343F0CA
:105238001603C1F88830002AC0D14EE64C49D1F88F
:10524800A03023F01E0343F01603C1F8A030002A53
:10525800B4D142E6DFF818E1DEF8A0C02CF0010C6A
:10526800CEF8A0C0DAE6DFF808E1DEF8B8C02CF026
:10527800010CCEF8B8C0D1E63D49D1F8B83023F0DA
:105288001E0343F01603C1F8B830002A96D124E66D
:10529800DFF8E0E0DEF810C02CF0010CCEF810C00A
:1052A800BCE634490B6923F01E0343F016030B6177
:1052B800002A83D111E6DFF8BCE0DEF828C02CF024
:1052C800010CCEF828C0A9E62A498B6A23F01E03F0
:1052D80043F016038B62002A7FF470AFFDE5254981
:1052E80072E7DFF890E0DEF840C02CF0010CCEF851
:1052F80040C093E61F4983E7DFF878E0DEF858C03E
:105308002CF0010CCEF858C088E61A494DE7DFF8B2
:1053180064E0DEF870C02CF0010CCEF870C07DE6B9
:10532800DFF850E0DEF888C02CF0010CCEF888C019
:1053380074E6104977E70F4981E7DFF838E0DEF8CF
:10534800A0C02CF0010CCEF8A0C067E6DFF824E07E
:10535800DEF8B8C02CF0010CCEF8B8C05EE60549FE
:105368008BE7A260026CE1604BE5026C55E500BF7B
:105378000000024000040240880002401C54025809
:10538800085402588054025894540258A00002400D
:10539800B804024070B50446FFF756F8002C6DD0EB
:1053A80094F83530022B64D125680646AD4B9D42F2
:1053B80066D018339D4263D018339D4200F0F380C5
:1053C80018339D4200F01A8118339D4200F0258160
:1053D80018339D4200F0FF8018339D4200F02E8163
:1053E80018339D4200F04A8103F556739D4200F040
:1053F800588118339D4200F0638118339D4200F0B4
:105408006E8118339D4200F06C8118339D4200F084
:105418006A8118339D4200F0688118339D4200F07C
:10542800688118339D4200F062812B688E4A23F010
:105438000E0395422B6000F0BF808C4B9D4200F01C
:10544800BB8014339D4200F0B78014339D4200F0B6
:10545800B38014339D4200F0AF8014339D4200F0B6
:10546800AB8014339D4200F0A78014339D4214D1C1
:10547800A2E080220023626584F83430012070BDE8
:105488002B68226E23F01E032B606B6923F08003C8
:105498006B61136823F4807313602B6823F0010396
:1054A8002B6005E0FEF7D0FF831B052B00F28A80F6
:1054B8002B68DB07F6D423686A49E26D8B42A06D3E
:1054C80002F01F025ED018318B425BD018318B423C
:1054D80058D018318B4255D018318B4252D01831E0
:1054E8008B424FD018318B424CD018318B4249D067
:1054F80001F556718B4245D018318B4242D0183194
:105508008B423FD018318B423CD018318B4239D076
:1055180018318B4236D018318B4233D018318B4238
:1055280030D001219140514A41604F48504983424F
:1055380018BF934200F13C000CBF012200228B42AD
:1055480008BF42F001022831834208BF42F001023D
:1055580028308B4208BF42F001022831834208BF3D
:1055680042F001028B4208BF42F001026AB9414A87
:1055780093420AD000230122184684F8352084F883
:10558800343070BD3F2393408360E36ED4E9192122
:105598005160002BEED01A68D4E91C1022F48072F6
:1055A8001A604860E6E7344B1A6C22F01E021A644F
:1055B8005A6D22F080025A65226E136823F48073B4
:1055C80013606AE7202103220023616584F83430E0
:1055D80084F8352052E7284BD3F8882022F01E02A1
:1055E800C3F88820D3F89C2022F08002C3F89C20BE
:1055F800226E136823F4807313604EE71E4B9A6D76
:1056080022F01E029A65DA6E22F08002DA66226EB5
:10561800136823F4807313603FE7174B1A6F22F067
:105628001E021A67D3F8842022F08002C3F884206F
:10563800226E136823F4807313602EE70E4BD3F8A1
:10564800A02022F01E02C3F8A020D3F8B42022F034
:105658008002C3F8B420226E136823F480731360A9
:105668001BE700BF10000240085402581C5402589F
:105678003054025894540258000002401E4BD3F88C
:10568800B82022F01E02C3F8B820D3F8CC2022F0AC
:105698008002C3F8CC20226E136823F48073136051
:1056A800FBE6164B1A6922F01E021A615A6A22F0AA
:1056B80080025A62226E136823F480731360ECE64A
:1056C8000E4B9A6A22F01E029A62DA6B22F080026E
:1056D800DA63226E136823F480731360DDE6074BE8
:1056E80062E7064B8BE7054B98E7044B74E7034BDF
:1056F800C5E7024BA3E700BF0000024000040240D8
:10570800002862D038B590F83530022B59D102689C
:10571800574B584C5849A24218BF9A4204F13004DA
:105728000CBF012300238A4208BF43F00103303134
:10573800A24208BF43F0010330348A4208BF43F055
:1057480001033031A24208BF43F0010330348A42DA
:1057580008BF43F0010301F55C71A24208BF43F0A2
:10576800010304F55C748A4208BF43F00103303139
:10577800A24208BF43F0010330348A4208BF43F015
:1057880001033031A24208BF43F0010330348A429A
:1057980008BF43F001033031A24208BF43F00103C0
:1057A8008A4208BF43F0010313B9344B9A420ED121
:1057B800042380F83530136823F0010313600020B8
:1057C80038BD80234365012038BD012070472C4B2C
:1057D8002C4D1168AA4218BF9A422B4C21F00E0199
:1057E80005F13C050CBF012300231160A24208BF4C
:1057F80043F0010311682834AA4208BF43F00103AB
:1058080021F00101A24208BF43F0010314341160E2
:10581800A24208BF43F001031C498A4208BF43F073
:10582800010313B91A4B9A4217D10123856DD0E9A8
:105838001714226801F01F0122F480728B40226045
:105848006B60C36ED0E91921516033B11A68D0E991
:105858001C1422F480721A604C6001210022036D2E
:1058680080F8351080F83420002BA8D09847A6E798
:10587800100002402800024040000240B8040240E4
:105888001C54025808540258305402588054025884
:1058980094540258F0B50022944B83B0856D0746A6
:1058A8001E680192924B026892482C68824218BF87
:1058B8009A4200F1180029680CBF01230023824294
:1058C80008BF43F001031830824208BF43F00103C8
:1058D8001830824208BF43F001031830824208BFE3
:1058E80043F001031830824208BF43F00103183027
:1058F800824208BF43F0010300F55670824208BF98
:1059080043F001031830824208BF43F00103183006
:10591800824208BF43F001031830824208BF43F0B7
:1059280001031830824208BF43F001031830824255
:1059380008BF43F001031830824208BF43F0010357
:105948001BB96D4B9A4240F02F81FB6D082103F083
:105958001F03994021420BD01068400708D51068F2
:1059680020F004001060A960796D41F001017965AB
:1059780024FA03F1C80709D55169090606D501219A
:105988009940A960796D41F0020179650421994037
:10599800214207D01068800704D5A960796D41F0CD
:1059A8000401796510219940214200F0B080106807
:1059B800000740F1AC80A960116811F4802F1168CC
:1059C80040F09E80C90503D4116821F008011160D8
:1059D800396C002900F09B8038468847FB6D2021F0
:1059E80003F01F039940214253D03A684048414C84
:1059F800A24218BF824204F118040CBF0120002003
:105A0800A24208BF40F001001834A24208BF40F08B
:105A180001001834A24208BF40F001001834A24225
:105A280008BF40F001001834A24208BF40F001004E
:105A38001834A24208BF40F0010004F55674A2428F
:105A480008BF40F001001834A24208BF40F001002E
:105A58001834A24208BF40F001001834A24208BF1F
:105A680040F001001834A24208BF40F00100183489
:105A7800A24208BF40F001001834A24208BF40F01B
:105A88000100002847D11C48824244D01068800792
:105A980044D47B6D002B70D07B6DDC071ED53A6833
:105AA800042187F8351015491368A1FB066123F016
:105AB8000103890A136002E01368D80704D5019B23
:105AC80001338B420193F7D91368DB074CBF0323DB
